:040000006F00902CD1
:1000040000000000000000009000002076020020A4
:10001400A9BDF9F5940000200000000000000000D4
:10002400960000209800002000000000000000005E
:100034009A000020000000009C0000200000000046
:100044009E000020A0000020A2000020A4000020A8
:10005400A6000020A8000020F2020020AC0000202E
:10006400AE000020B0000020B2000020B400002048
:10007400B6000020B8000020BA000020BC00002018
:10008400BE000020C0000020C2000020C4000020E8
:1000940001A001A001A001A001A001A001A001A054
:1000A40001A001A001A001A001A001A001A001A044
:1000B40001A001A001A001A001A001A001A001A034
:1000C40001A001A001A0B71700409306700523808A
:1000D400D704130780FA2380E7040100010003C654
:1000E400B7041376F60DA385C7042380070413769B
:1000F40005024DC203C6A700118A1DE22380D7045E
:100104002380E7040100010003C7A7001367470029
:100114002385E7009307004B01000100FD17EDFF65
:10012400B7170040930670052380D704130780FA9D
:100134002380E704010001007D892394A7000100C6
:10014400010001000100238007042380D7042380D9
:10015400E704010001000100010037270040930675
:100164001005A303D78023800704B71700401307A3
:1001740070052380E704130780FA2380E704010055
:10018400010003C7B70413670708A385E7042380A6
:10019400070482801376050441C603C6A700418A7A
:1001A4001DE22380D7042380E7040100010003C774
:1001B400A700136707012385E7009307007D01006B
:1001C4000100FD17EDFFB71700409306700523806B
:1001D400D704130780FA2380E70401000100137693
:1001E400F501136606042394C70001000100010011
:1001F4000100238007042380D704130660042380AE
:10020400E7046318C5000100010037270040894650
:1002140089BF01000100372700409306200591B7EC
:100224002380D7042380E7040100010003D787005B
:100234001367070C2394E7000DBF41118146014663
:100244008145114506C6112BB717004013077005E9
:100254002380E704130780FA2380E70401000100E8
:1002640003C76704136717002383E7042380070485
:10027400B240410182808146014681451145F12900
:10028400B7170040930670052380D704130780FA3C
:100294002380E704010001007D562396C7022380D2
:1002A400D7042380E7040100010003C76704136730
:1002B40017002383E7042380070401A0BD47330507
:1002C400F50201007D1575FD8280411122C426C20C
:1002D40006C6AA84014463179400B240224492449F
:1002E4004101828005041305803E4204C13F4180E0
:1002F400DDB70111A307010022CE26CC4ACA4EC89D
:10030400378400408347640093F7F70FA307F10095
:100314008347F100898B638507348347740013078F
:10032400000393F707036388E70883447400834753
:100334007400BD8893F70703638607201307000240
:100344006396E7061729000013098943639304148D
:100354009727000083C707529D83EDCF834724026C
:1003640093C707042301F4028347240293F7C70FBA
:1003740093E727002301F40283274901972500000E
:1003840083C5454063FCF50A8D8F1727000023239E
:10039400F74083278901BE959727000023AEB73E17
:1003A40013050008972000E0E78000AAB787004003
:1003B40009472383E7003784004083477400E2073A
:1003C400E18763D60706930720FC2301F4029724F0
:1003D40000009384E43A83A504082146172500000D
:1003E40013054549972000E0E780004F8387440FB9
:1003F40063CA0700230004028347240293F7C70F4C
:100404002301F402378400408347240217250000A7
:100414001305454693F7370F93E787002301F4024A
:10042400972000E0E780E09289472303F4007244B8
:10043400E2445249C2490561730020308325890191
:10044400BE959727000023A9B7349727000023A35C
:100454000734B9B7172700000347D7419547631BF3
:10046400F700834734000347090093F70708D98F3F
:10047400A301F4008347240293F7C70F93E72700EF
:100484002301F4028347240293F7370F2301F40274
:1004940031BF91476398F4008347240393C707044B
:1004A4002309F402154433D484029307000333046C
:1004B400F402939724003E94B78700409387270261
:1004C4003E948347040093F7C70F93E72700230064
:1004D400F400E147B387F402CA97D84B03C6470038
:1004E400944F6379E6048C4B118FB296B2958CCB02
:1004F400D8CB94CF88476376E602972000E0E78064
:10050400A03DE147B384F4028547CA9403C754006D
:10051400630BF7008347040093F7C70F2300F4002D
:1005240071B53A86D9BF8347040093F7C70F93E7A1
:100534001700EDB7B305D7008CCF23AA070013E546
:1005440004088DB5B1EC8347240217290000130970
:10055400292393C707082301F402834484008325D5
:1005640009080325890893F4F40F2686972000E0F0
:10057400E7808036832509090145A6959727000061
:1005840023A8B7288327C908858F17270000232F9E
:10059400F726972000E0E780208DE39904E0DDB59D
:1005A4008347740093F70704E38207E09147639855
:1005B400F4008347240393C707082309F402614422
:1005C400B3878402B789004003C989001724000057
:1005D4001304041B1379F90F4A863E9483250408F7
:1005E40003258408972000E0E780002F83278408F0
:1005F400832504090347C407CA972324F4088327DF
:10060400C408CA952328B408B38727412326F408CD
:100614006363E90099E72685972000E0E780C084BA
:1006240071B39547B3D7F402130700038A0493897F
:100634002902B387E7020347D407BE948547CE94C3
:100644006309F70083C7040093F7370F2380F4008E
:10065400B1BB83C7040093F7370F93E74700FDB797
:100664008347F100858B99CFA3010400971000E024
:10067400E780C06A8347240293F7370F2301F4020B
:10068400854765B38347F100918B89C7834754003D
:10069400914761BB8347F10093F7F70F79B32303C5
:1006A400048015472303E48001002302A480828090
:1006B40083076480E3CE07FE2303048082808307DC
:1006C4006480E3CE07FE0345448082808307648010
:1006D400E3CE07FE2302A4808280411126C44AC2CD
:1006E4004EC006C61377F50BAD47AA892E899544EB
:1006F4006306F70019456537653F8D444E854537D8
:10070400FD59FD1463983401B240A2441249824950
:1007140041018280135509011375F50F453F2209E4
:10072400CDB7011126CC06CEB704080051371545C4
:10073400BD37713769372AC6A53F3245937715000F
:1007440089EB136515001375F50FF240E24405615A
:100754008280FD14E9FC0145CDBF397126DC4ADAFB
:100764004ED852D656D45AD25ED006DE62CE66CC6D
:10077400B7E700E07D5783AA070022C603AA470013
:1007840023A0E71823A2E718B71700401307700542
:100794002380E704130780FA2380E70483C7470410
:1007A400930B75FFB684E20793FBFB0F8546AA897A
:1007B4002E8B328937240040E187015763FA760192
:1007C4006308D5008946130700026313D500015757
:1007D400D98F93F7F70FB71C00402382FC0411470D
:1007E4002303E4801305F00F5D3D094CD135636D9F
:1007F4007C11B7050700DA9537870700795563F24E
:10080400E504B3879500636EF702370B0800A94728
:1008140033EB65016399F90689E48144513D2685EA
:100824000DA0DA850945553D05090345F9FFFD1479
:10083400050B693D81C49377FB0FFDF7DD3569FD39
:100844007D55B7170040130770052380E70413078D
:1008540080FA2380E70403C74704418B2382E7041B
:10086400F250B7E700E023A0571123A24711E25446
:1008740032445259C259325AA25A125B825B724CA8
:10088400E24C21618280A5476395F90685691309C5
:10089400F00FB3069900B3742B01B6941349F9FF12
:1008A400B3749900856B33796901416B9387F9FFC0
:1008B400B3F7270199E363FC340193D94900C14795
:1008C400E3E637FF99BF0569C1697D19D9B71305F7
:1008D400800D63886901130500026384790113059F
:1008E4001008CA85DD3B353D21DD4E99B384344182
:1008F400D9B7DA852D45D533CA94E30099F20509B1
:100904007D3BA30FA9FED5BF9387F9FF93F7F70F9C
:100914006361FC0C83C71C0413073008631FF704CE
:1009240037070800636BEB04B3079B00B70610009E
:1009340063F5D704334BEB0089476393F906898049
:10094400D549E38C04ECDA850945413B11090327B9
:10095400C9FF91472320E48003076480E34E07FE28
:1009640023033481FD17EDFBFD14110B81C4937730
:10097400FB0FE9FF7D3371F5E1B5B717004003C7FD
:100984005704B70708001377070219E3B78707006E
:100994007955E378FBEA33079B00E3FFE7F855B5A5
:1009A4008547E382F9F2DA852D45053B9389F4FF07
:1009B400E38504E6293393F7390091EB8326048019
:1009C4000327090093074900E39AE6E43E89CE84AD
:1009D400F1BFB5476396F9001305900BC93135BDD6
:1009E400B1471305B00AE38BF9FE99476391F90403
:1009F400B7050800B365BB002D45C53181448D4B57
:100A0400A149753963967401832704802320F90072
:100A14008504E39834FF8327048013172B0163555F
:100A240007002312F900D5BB2322F900FDB39D472B
:100A34006399F90281451305B0044531BD4423206F
:100A4400090023220900FD599D3993F77400CA97C0
:100A540003C70700FD14398D2380A700E39634FFF4
:100A64006DBBA1476392F9046D398144630D0B009A
:100A74008D479304C0036308FB00930400056304DB
:100A84008B01930440041375C507E30895D81945F1
:100A9400393139390545213126850D3909453D312D
:100AA4004931E31C05D669BB91476399F9001305E5
:100AB4006006F536F53E130590090DB7E38F09D4AA
:040AC400F154A9BB85
:100AC800971100209381818A177100201301C15268
:100AD8001305400097F5FF1F938545521706002020
:100AE800130606FE63FAC5008322050023A05500FD
:100AF80011059105E3EAC5FE173500001305457495
:100B0800970500209385C5FB1386818063FAC5008D
:100B18008322050023A0550011059105E3EAC5FECF
:100B2800171500201305851B972500209385C5E11F
:100B38006377B500232005001105E36DB5FEFD427E
:100B4800739002BC8D4273904280B722000093825A
:100B5800828873A0023097F2FF1F9382224A93E2A1
:100B6800320073905230970200009382426673906D
:100B78001234730020303D432A876373C30293778E
:100B8800F700BDEFADE5937606FF3D8ABA960CC334
:100B98004CC30CC74CC74107E36BD7FE11E28280F8
:100BA800B306C3408A069702000096966780A6009F
:100BB8002307B700A306B7002306B700A305B700AD
:100BC8002305B700A304B7002304B700A303B700A5
:100BD8002303B700A302B7002302B700A301B7009D
:100BE8002301B700A300B7002300B700828093F564
:100BF800F50F93968500D58D93960501D58D61B730
:100C0800939627009702000096968682E78086FAD8
:100C18009680C1171D8F3E96E374C3F8A5B741119E
:100C280006C6E1299717002023AAA70A21812605CD
:100C38009707002023A6A7EC97070020938747E88B
:100C480097050020938545EC0947904B239AE700C8
:100C5800E1079376F61FB336D0002582B296369711
:100C6800420741839306F7FF239FD7FEE39FB7FC14
:100C7800B24041018280814763C3C70082800387F5
:100C8800050001CB8505B306F5002380E60085073E
:100C9800E5B713070002C5BF797122D42E8426D286
:100CA80013060020AA848145228506D64AD04ECE56
:100CB80052CC56CA5AC85EC662C466C26D3D9DEC27
:100CC8001306E003973500009385C5FA2285EF10D7
:100CD800F03F93075005230FF41E9307A0FAA30FC4
:100CE800F41EB250225492540259F249624AD24A2E
:100CF800424BB24B224C924C456182809307402074
:100D080063E397089387F4FF130710106374F700E1
:100D18009387D4EF939687009705002083D5A5DEA7
:100D28008505228613880610368713051700636920
:100D3800B704231006002A870906E318A8FE99E7D6
:100D4800E1572310F400FD572311F4001707002082
:100D5800130707D717060020130606DB9305F00FC5
:100D68007D558357670163E9D700958F63E6F500E2
:100D78008607A2972390A7006107E314E6FE95B7BC
:100D88002310A6004DBF9307802063EA970C9307B2
:100D98005020E398F4F422852D469735000093857A
:100DA80015F0D13D93078002A305F40093040402D3
:100DB800170900201309C9D013040408130C4006AE
:100DC800130B9002930B60FA130A20FD930A600537
:100DD800971C0020938C8CF0835949012D46CA85B5
:100DE8002685513DA38684018327C900238D3401BC
:100DF80093D9890023876401A38774012388440158
:100E0800A388540123894401A3895401238A040037
:100E1800A38A0400238B6401A38B7401238C4401EF
:100E2800A38C5401A38D340195C78327090113D7D7
:100E38008700238EF400A38EE40013D70701E18313
:100E4800238FE400A38FF400938404026109E395DF
:100E580084F841BD83A70C00A183A607C9BFC16759
:100E680093878710E3EF97E617070020130747C516
:100E7800938494DF8147BA860D468355470163E61C
:100E8800B4008355670163F7950085076107E3960A
:100E9800C7FE894761473387E70209463697835576
:100EA80047018D8C6382C704104BA604E3FBC4E2A0
:100EB800058E130700206374C700130600206147DE
:100EC800B387E70222852254B2500259F249624A96
:100ED800D24A424BB24BB697CC47224C924CA6957D
:100EE800925445616F10901E97170020938707DF73
:100EF8009C4313958400E376F5DE3747320A1307DF
:100F0800576518C0A18337575D9E1CCC130777150A
:100F18009307001058C01CC83777B10A89671CC4EA
:100F2800130707F3B707CDAB44C8232EE41E48C404
:100F38005CCC930504022254B25092540259F249EF
:100F4800624AD24A424BB24B224C924C13060010D2
:100F580045617DA29841B747320A938757657D5509
:100F6800631DF70AD841B7575D9E938777156316B7
:100F7800F70A03A7C51FB777B10A938707F3631E5C
:100F8800F7089C45096793061700F58F6397E708EC
:100F9800D84DB707CDAB6312F708411122C42E8490
:100FA80026C24844B28490499385050206C6912A10
:100FB8001C4C81EBB24022449244130500204101AD
:100FC80082809440638AD7001167130737066363EA
:100FD800F70091C2FD579CC05C481167130737069C
:100FE800E36AF7FC93F677008D830547A6973317D6
:100FF800D70083C697001377F70F33F6E60001EAA8
:10100800D040558FA384E70093071600DCC0D84072
:101018009C40E361F7FA352271BF82808280B7076E
:101028000C009CC1930700202310F6008280B707AC
:101038000C006379F500411106C6B939B240014583
:101048004101828001458280B7070C006373F50473
:101058004111171600201306A6CA014506C6DD3D34
:10106800971700209387C7C99C4385C385471717DF
:1010780000202307F7C69717002083C777C693C7B2
:10108800170017170020A30DF7C4B240014541010E
:101098008280971700209387A7C69C4385C38547FE
:1010A80017170020230EF7C29717002083C757C3CE
:1010B80093C7170017170020A304F7C201458280C1
:1010C8004111173500001305A5CD06C6EF00105BCA
:1010D800130610088945171500201305E543EF107E
:1010E800806FEF00705DB24041016F007063411185
:1010F80006C63536B2404101E1B7370507008280A0
:1011080091A8FD67636EF502411126C2AE8422C420
:10111800AA852A8426854AC006C63289EF10A07897
:1011280011C922852244B2404A86A68502499244C2
:10113800410109A8B24022449244024941018280F7
:1011480082808280B2862E86AA85094517F3FF1F02
:10115800670063600DA861BF1305800417F3FF1FC4
:10116800670023F6B7E700E03707400023A0E71041
:1011780059472388E70417F7FF1F13074717136713
:101188001700B8D382800D06719A81473307F5009E
:101198006393C700828014433387F500910714C313
:1011A800F5B7814737370040A14663C4C700328589
:1011B80082800345B740E38EA6FE3385F5000345DC
:1011C800050085072304A740CDB7411106C6693736
:1011D8005937EF00905475DDB240014541018280D6
:1011E80009E9378700408347370093F70708A301C9
:1011F800F700971700202381A7580145828083476D
:101208000500914613F7F70763FFE602411122C470
:101218002A8417350000130525C106C6EF1060762D
:101228008345040017350000130505C1EF106075EC
:10123800173500001305C5C1EF10A074B240224451
:101248007D554101828093968701E186834525007B
:1012580003461500971700209387075263DF06009F
:10126800E1463307D702BA9705472386E70023826A
:10127800B700A382C70001458280E1463307D70241
:10128800BA9705472382E708238EB706A38EC706B9
:10129800DDB71377F507E1463307D70262059717DD
:1012A80000209387674D6185BA97635605002386AA
:1012B80007000145828023820708E5BF1377F507F9
:1012C80099E17D5555EEE147B307F702011126CAAA
:1012D800971400209384444A06CE22CC4AC84EC6AE
:1012E8007955A69783C6C700B1CA93F635007555D8
:1012F800B1E6154433548702930600038CCBD0CB58
:1013080023AC07003304D402931627003694B7861B
:1013180000409389060293862602A299369415E620
:101328002380090003C7570085476304F7048347F0
:10133800040093F7C70F2300F4000145F24062440C
:10134800D2444249B2490561828003C947006373A8
:101358002601328961453307A7024A861379F90FB6
:10136800BA948844EF1080562380290103C754009B
:1013780065BF8347040093F7C70F93E7170065BF5E
:1013880082809376F50799E17D5535E26147B38709
:10139800E602171700201307273E79553E97834723
:1013A8004708B1C793F735007555B1E39547B3D7EB
:1013B800F602130500032324B7082326C7082328A9
:1013C80007080347D707B387A70213952600AA97EC
:1013D80037850040130525023E958547630AF700C7
:1013E8008347050093F7370F2300F50001458280F6
:1013F8008347050093F7370F93E74700F5B713774F
:10140800F5079547B357F702930600030A076205E5
:101418006185B387D702BA97378700401307270239
:10142800BA9703C70700634805001367C7002380FE
:10143800E7000145828013673700D5BF1377F507AA
:101448009547B357F702930600030A0762056185BB
:10145800B387D702BA973787004013072702BA978E
:1014680003C7070063480500137737072380E700A1
:10147800014582801377C70B13672700C5BF411149
:1014880006C6971700209387272F97160020938664
:10149800A61A171500201305252A94D3A8CB97164A
:1014A800002093866621171500201305E51094DFA8
:1014B800A8D717170020130727089715002093852A
:1014C800A513171600201306261B971600209386CF
:1014D800A622171500201305250A98C723A0E70898
:1014E80023ACB70823A8C70A23A4D70C23A0A70EA8
:1014F800B7870040238007001305C0FC2386A70098
:101508004207A386A7004183C2052398E700C1814B
:101518004206239AB7004182C206239CC700C182B3
:10152800239ED700A9462381D70269472383E70270
:101538002385E7022387E7022389D702A3810700CF
:10154800130790022380E700B716004003D7A601CF
:101558001367070C239DE6007D572383E7001307D5
:1015680010F8A380E7001D472381E700E53EB2405D
:1015780001454101828041119707002093874777F1
:1015880022C4804326C24AC006C6AA842E8919E40A
:10159800B240224492440249410182801C4881C7DA
:1015A800CA85268582970040DDB7011106CE83479C
:1015B80025002304F1008347550003474500A2078F
:1015C800D98F93F7F77F2315F10083473500173537
:1015D80000001305A5928D8BA304F100EF10603A6B
:1015E8008356A1000346910083458100173500000A
:1015F8001305C591EF10E038173500001305458530
:10160800EF1020382800E53EF2401335150005613B
:101618008280138781801C475047AE970D8E23A880
:10162800F18023AAC180BE8501EA83C7C18181CB2D
:10163800238E0180014681451305000841B183D7F7
:10164800E18089CB8307070063D6070001468145FF
:10165800014505BB82804111173500001305058A35
:1016680006C6EF1000329385818083D7650003D7C3
:10167800450083D6250003C6150083C50500173528
:1016880000001305A581EF10C02FB24017250000F8
:101698001305057C41016F10C02E5D7103C7818061
:1016A80086C6A2C4A6C2CAC04EDE52DC56DA5AD8D2
:1016B8005ED662D466D26AD06ECE937707061306DA
:1016C8000002938681806382C74013060004638307
:1016D800C7480144639D071A0D8B054683C791804F
:1016E8006306C72029C389456306B73203C79180BB
:1016F80099476318F73A93070060173500001305F8
:10170800258D2395F180EF10C027173500001305AC
:10171800258DEF10E0381725000013056573EF10CD
:1017280040260144ADA2254703D5A180E360F7FC1C
:1017380017270000130747728A07BA979C43368811
:10174800BA9782879C46238007009C46A38007009F
:1017580089478DA01375F50F613423AC0180B9ABAF
:10176800935585008D4793F6F50F1374F50F63961F
:10177800F5049307E00E6315F40817250000130518
:10178800E577EF100020172500001305257AEF10E4
:101798002031172500001305A56BEF10801E970751
:1017A8000020938767549C43B1D3984323A8E180D2
:1017B80083C7470023ACF18011A33D476390E5043C
:1017C8001725000013058573EF10A01B17250000CF
:1017D80013050578EF10C02C172500001305456781
:1017E800EF10201A970700209387C74F9C43E38F79
:1017F80007EE9843DC4323A8E1806DBFE3E8B7EE2A
:1018080083278801014703C607001DE61725000046
:10181800130585612EC6EF10C016B245228617350E
:1018280000001305A587EF10C01517250000130544
:101838002562EF1000155DBD03C517006315D500BF
:10184800630EE4440507B2977DBF9387519223A89E
:10185800F180854785B703A986019374F50F014484
:101868009309F00F130AF00F914A154B894B8347E0
:10187800090095EF2DC8A3829192854781451D45A2
:101888002382F192CD39EFF06FF923AC01802285E4
:10189800B640264496440649F259625AD25A425BE7
:1018A800B25B225C925C025DF24D6161828083478B
:1018B8001900638F57016380670363977701834932
:1018C8005900639334010544834709003E9945B79D
:1018D800034A3900D5BFE39934FFE3170AFE4A8566
:1018E800E9312A84D5B723AC018009B503C65192E2
:1018F800E30E06DE194683D4A18003C94600638E31
:10190800C7046369F600E39307DE9C46238007005B
:101918009C462DBD29466389C7082D47E398E7DC17
:10192800804E93F4F40F9309F00F130AF00F814AD5
:10193800914B154C972C0000938C4C5C172D000094
:10194800130D8D64972D0000938D8D5083470400EF
:10195800B5E3D6852145053109B5A1809307200255
:10196800E396F4D81725000013054559EF106001D8
:10197800172500001305855FEF108012172500005A
:101988001305054DEF00F07F970700209387473632
:101998009C43E38D07D403C7C701E31B27FFD84B3C
:1019A8009C4F23A8E18039B59C462380070023ACCF
:1019B800E18029A683471400638877016380870341
:1019C800834704003E9459B783492400034A3400EE
:1019D800E31839FFE39644FFA28ADDB7E31239FF23
:1019E80063874403034634006685034B24000D8A4D
:1019F80032C6EF0010793246DA856A85EF007078D2
:101A08006E85EF0010785A85EFF0BF8855BF2285A4
:101A1800693E7DB783C55192E38A05CC03C446006D
:101A28006387C70495CF0D47E392E7CC83D7A1809E
:101A3800E39B07EA172500001305053FEF007074C4
:101A4800A2851725000013056557EF009073172529
:101A580000001305E53FEF00D07222854D32F5B93D
:101A68009C46238007009C46A380070089B783D73C
:101A7800A180E39A07E6172500001305E53AEF0071
:101A88005070A285172500001305C551EF00706F2F
:101A9800172500001305C53BEF00B06E2285793A83
:101AA80031AC1725000013052538EF00906D172578
:101AB800000013052554EF00B07E1725000013051C
:101AC8002539EF00106C413EA9B90D8B8547631786
:101AD800F704970700209387A7219C4383C64600F5
:101AE80081EF1725000013052534EF0090691725AD
:101AF80000001305A551C1B7D84319CF03C6C701C4
:101B0800631CD600138681819385018113858180AA
:101B180002976355051AF1B79C43D9B78947E31271
:101B2800F7FC970700209387A71C9C4303D7C18025
:101B38002183C5DB944789CE03C6C701631AE60033
:101B48001386818193850181138581808296D1B71F
:101B58009C43C5B717040020130404191C40D5CFB3
:101B680083C7570003C791806313F71083D7C180D9
:101B780011476382E70415476388E70617250000C5
:101B88001305852AEF00F05F172500001305454C63
:101B9800EF001071172500001305852BEF00705E0C
:101BA8001725000013054528EF00B05D1725000034
:101BB8001305454D09B71725000013052534EF0017
:101BC800505C172500001305E545EF00706D1725DB
:101BD80000001305E527EF00D05A1C40984783D72B
:101BE800C70023A8E180F9B61725000013050531C1
:101BF800EF003059172500001305C543EF00506A60
:101C0800172500001305C524EF00B0571C40984B5A
:101C180083D7470123A8E18071BE1704002013046D
:101C2800E40C1C40A9C783C7670003C791806310F1
:101C3800F70403D7C1809D47E312F7F41725000086
:101C48001305C52BEF00F053172500001305C541F8
:101C5800EF001065172500001305851FEF0070526F
:101C68001C40984383D7470023A8E180A1B6970773
:101C780000209387E707804393848181138901813A
:101C880093898180E30E04F05C4499E30040DDBF52
:101C98002686CA854E85829775F90DA009476398EF
:101CA800E60003C6370003C727002206598E03251E
:101CB8008800BE8523ACC180EF0050410544C1BEF9
:101CC800B9C5138781801C475047AE970D8E23A84E
:101CD800F18023AAC18005EA41119387418206C693
:101CE80023A8F180EFF07F9B19E5B24013050008A7
:101CF80041016FF0CFF0B24001468145130500085D
:101D080041016FF0AFDBBE8501456FF08FE7828040
:101D18000111014506CEEFF0AFCC23920192B7072F
:101D280040009387070828003EC4EFF04FCD2800F5
:101D380023040100EFF0AFCC81450545EFF0BF83E8
:101D4800F240056182809387818041112146AA85EE
:101D58003E8522C406C6EF00703703D6E18013071C
:101D680000102A84637FC7028307050063CB07023C
:101D7800172500001305450BEF00B040172500009C
:101D880013050510EF00D051172500001305450C69
:101D9800EF00303F2244B2401305000841016FF0C4
:101DA8000FE69385418223A8B18023AAC18023AC82
:101DB800C180238E018019CA8307040063C8070005
:101DC8002244B240014541016FF0AFDBEFF0FF8CD8
:101DD80071D11C4803D6E18063F3C7003E8623AA6D
:101DE800C1809307001063F7C70217250000130589
:101DF800A503EF0010391725000013056508EF004B
:101E0800304A2244B24017250000130565044101F9
:101E18006F0030370C4413050008EFF02FCA1C4838
:101E280003D7E18063F8E70093F7F70381E7854775
:101E3800238EF180B2402244410182809377F507D6
:101E480031473387E702971700209387A7A8BA97E7
:101E580003A3870063030300028382809377F50757
:101E680031473387E702971700209387A7A0BA97CF
:101E780003A3870063030300028382809387818022
:101E8800130700F888CFA38F0710971700209387B0
:101E980067A42380E70017F7FFFF1307C77798C7E2
:101EA800971700209387079D17070000130787E1FE
:101EB8002380070098C7828083C77192230EF5009C
:101EC800170700201307C7E2144381EA08C3232039
:101ED80005008507A383F19282803687F5B783478B
:101EE800050050411397870161876350070213F774
:101EF800F707B146B306D702171700201307879DC7
:101F080036972300F70010C782803147B386E7026F
:101F18001717002013070796E5B703C5419282807B
:101F28006FF0EFD597F7FF1F9387C7D613570501B3
:101F380021812389E702A389A702238A07028280D5
:101F4800411126C297F4FF1F9384C4D4DC5C22C4D9
:101F580017F4FF1F035404D83304F40206C6856738
:101F680063F387000564885C228697F5FF1F9385D5
:101F7800E5D6EFF0CF8B01CD37150400130505101A
:101F880055370145B240224492444101828022865D
:101F980097F5FF1F938585D4171500200345059AEB
:101FA800EFF0CFB197F7FF1F83D7C7D23357F402AB
:101FB8009C5C0545BA9797F6FF1F23A9F6D0DC5C11
:101FC800998F17F7FF1F2325F7D0D854330487407C
:101FD80017F7FF1F232687CED5F78D4717F7FF1F63
:101FE800232AF7CA45B73757425397F7FF1F9387F6
:101FF80067CA13075735D8D32388A7021147354630
:1020080097F5FF1F938545CB1715002003450593CA
:1020180098C36FF0AFAA834715001307E00F6380DA
:10202800E7021307F00F6396E70297F7FF1F23A352
:1020380007C697F7FF1FA38707C8014582809C4101
:1020480017F7FF1F034757C82380E70085471CC2BF
:10205800EDB7411122C42A8417250000130545F75E
:1020680006C6EF001012834514001725000013055B
:10207800E50EEF00101117250000130565DDEF00D0
:102088005010B24022447D554101828097F7FF1FCE
:10209800938747C09C430D47638CE7021147638BC6
:1020A800E7020947639AE70497F7FF1F83C7B7BF9B
:1020B800130780026386E7001307800A639EE7021E
:1020C800411106C6B53D15E5B2400545410121BFA0
:1020D8000145F5BF97F7FF1F23AE07BA7D4697F571
:1020E800FF1F938565BB171500200345A5846FF076
:1020F8004FA9B24041018280828085476306F5007E
:102108009D47630CF500828097F7FF1F23A407B84B
:1021180097F7FF1FA38807BA82807D4697F5FF1FB0
:10212800938585B7171500200345C5806FF06FA507
:102138005D71A6C297F4FF1F9384C4B59C40A2C4E6
:1021480086C6CAC02E8491CB05476384E760B64033
:1021580026449644064961618280FD476387F502FB
:1021680017250000130545CCEF00B0011725000026
:10217800130585F5EF00D01217250000130545CD8E
:10218800EF00300037250500B1AC9C44C04417F778
:10219800FF1F2325F7B297F7FF1F23A387B217F76F
:1021A800FF1F034737B08547E3EEE7FCD840B75732
:1021B800424393875735E317F7FC83C724013D470C
:1021C800FD1793F7F70FE36FF7FA97F7FF1F83C72A
:1021D80097AD13073002638EE72C636FF706494704
:1021E8006381E718636BF702638007280D47638FE5
:1021F800E710372505003D3317250000130545DD99
:10220800EF00207897F5FF1F83C5F5A91725000073
:10221800130545F1EF00E07641AE6D476386E7248C
:1022280079476383E7246947E395E7FC21DC17F4E2
:10223800FF1F034494A78D4763F3870011448D471C
:102248003ECE97F7FF1F83C7F7A76384071093074E
:1022580000F8230FF100F5A81307F0026385E718CB
:102268006361F70613078002638EE7281307A0024D
:102278006384E73C13075002E39DE7F6E30404F0A8
:1022880003D70404FC40231C010093168700FD17A4
:102298002183558F93D68701230AD10093D607014E
:1022A800A30AD10093D68700230BD100A30BF1001A
:1022B800D247231DE10017F7FF1F2321F7A2E247AA
:1022C80001AA1307800A6387E72E1307A00A63830E
:1022D800E7401307A005E39EE7F0E30504EA17F4D7
:1022E800FF1F0344D49CE94763F387006D446D46A0
:1022F80081456808EFE03F8893076002A30EF1006C
:102308008567938787202312F102A1A0E30C04E6D6
:1023180017F4FF1F03447499C54763F387004944C2
:1023280002CE9307000702D0230EF100A947A301AC
:10233800F10283C7240302D402D2230FF10083C71A
:102348003403231601022304F10283C74403A304C0
:10235800F10222866C0817F5FF1F13052598BD2387
:10236800A9A013064002972500009385658E68088A
:10237800B12BB7373031938707E33EDEE30404E03F
:1023880083C74401858BF1C797F7FF1F83C7D79190
:1023980095E3B707000217F7FF1F2321F794E177AA
:1023A80017F7FF1F231EF792194497F5FF1F938510
:1023B800E59275A8130700086392E702B78700083B
:1023C80017F7FF1F232CF790B727202093870702C2
:1023D80017F7FF1F2326F7902144C1BF37250500B3
:1023E800130505408136172500001305E5A3512B79
:1023F80097F5FF1F83C5358B17250000130545D4B6
:102408004923172500001305A5A4A52B97F7FF1F3F
:1024180083C7478989EBDC4499C717050020034522
:102428006551EFE0DFFD1705002003452551EFE07A
:102438001FFD7D4697F5FF1F938505862644B64008
:1024480096440649170500200345C54E61616FE0B3
:102458005FF317F4FF1F0344548593073002E3FA30
:1024680087EE13044002F5B58145E31D04D09C4076
:10247800E39F07CC6307042C03A9C40063732401FA
:1024880022898D474A86170500200345254B17F7F3
:10249800FF1F2321F780EFE07FE2DC5433892741D7
:1024A80097F7FF1F23AE278197F7FF1F238C07801D
:1024B80079B9E30904CC83D7440403D704046C082E
:1024C80013968700A1835D8EFC40931687002183B5
:1024D800558FB706000836CE93D68701C183A3006F
:1024E800F1022311C1028947314617E5FF1F130581
:1024F800E57E2300D1022312F1022313E1023144C5
:10250800F12665B583870401E3DE07C6E30C04C63C
:1025180097E7FF1F83C7577917E7FF1F0347E77838
:102528004207E207D98F17E7FF1F03472778D98F9C
:1025380017E7FF1F03477777220783D6A401D98FB0
:1025480017E7FF1F2324F77813978600A182558F7A
:102558004207418397E6FF1F23ACE676F440BA971B
:1025680063F2F6023725050013050510EFF09F9B6F
:10257800172500001305458B292117250000130591
:1025880025B615A097E7FF1F83D7C7743387E702DF
:102598006309E4081725000013050589DD261725BA
:1025A8000000130525B5ED29172500001305458AF8
:1025B800C92E15BD83870401E3D607BCE30404BC18
:1025C80097E7FF1F83C7576E17E7FF1F0347E76D9E
:1025D8004207E207D98F17E7FF1F0347276DD98FF7
:1025E80017E7FF1F0347776C2207D98F17E7FF1FED
:1025F800232EF76C17E7FF1F0347576B97E6FF1F5C
:1026080083C6E66AC2066207558F97E6FF1F83C630
:10261800266A558F97E6FF1F83C67669A206558FEF
:1026280015BF894717E7FF1F2326F766EFF05F916D
:102638000144E31C05D645BB83870401E3C407B402
:10264800E30204B497E7FF1F83C7176617E7FF1F66
:102658000347A7654207E207D98F17E7FF1F03471C
:10266800E764D98F17E7FF1F03473764220783D62C
:10267800A401D98F17E7FF1F232AF7641397860051
:10268800A182558F4207418397E6FF1F23A2E66484
:1026980097E6FF1F83D60664B386E602BA97F8402A
:1026A800E368F7ECE311D4D4854717E7FF1F23232A
:1026B800F75E8567228663F38700056697E5FF1F47
:1026C8009385C561170500200345C526EFE07FCB3C
:1026D8000144E1B983870401E3C607AAE30404AA15
:1026E80097E7FF1F83C7575C17E7FF1F0347E75BA1
:1026F8004207E207D98F17E7FF1F0347275BD98FE8
:1027080017E7FF1F0347775A2207D98F17E7FF1FDD
:10271800232EF75A17E7FF1F0347575997E6FF1F5E
:1027280083C6E658C2066207558F97E6FF1F83C621
:102738002658558F97E6FF1F83C67657A206558FF2
:10274800A1B701452644B6409644064961616FF039
:102758009F8997E7FF1F83C717551307A002638652
:10276800E7001307A00AE394E79E885C228697E5B2
:10277800FF1F9385A556EFE03F8D09C93705040073
:1027880013050530EFF00FFA05456DBF17E6FF1F7B
:1027980003564654B356C402985C369797E7FF1F12
:1027A80023A6E752DC5C958F17E7FF1F2322F75219
:1027B800D8543304874017E7FF1F23238750D1D30A
:1027C8003306F602856763F3C700056697E5FF1FC2
:1027D8009385C550A5B1411106C622C426C29707E4
:1027E8000000938787835CC1970700009387279130
:1027F8001CC997070020238FB712232405009707C9
:10280800000093872793170700202327F7129707BD
:1028180000202385C7129707000093876787232620
:1028280005002A84170500201305C5101707002086
:102838002328F710EFF0AFEA17050020130505105D
:10284800EFF0EFE9856413868404814517E5FF1FDF
:1028580013054544EFE02FB217E6FF1F130686471E
:1028680097E5FF1F938545470145EFE04FFB97E745
:10287800FF1F83D7274663F2F402171500001305DC
:10288800A55A0122172500001305C58F112C17150D
:1028980000001305E55BF52001442285B24022447F
:1028A80092444101828001476314E6000145828019
:1028B800B307E5000507B386E50083C7070083C6AD
:1028C800F6FFE383D7FE3385D7408280B3C7A500E0
:1028D8008D8B3307C50081E78D4763EEC700AA8754
:1028E8006370E50A83C6050085078505A38FD7FEB3
:1028F800E3EAE7FE828093763500AA8791CA83C609
:10290800050085078505A38FD7FE93F63700FDB729
:102918009376C7FF138606FE63F0C70683A30500F8
:1029280083A2450083AF850003AFC50083AE0501D0
:1029380003AE450103A3850183A8C501938545021C
:1029480023A0770003A8C5FF23A2570023A4F701FB
:1029580023A6E70123A8D70123AAC70123AC670050
:1029680023AE17019387470223AE07FF75B790413F
:102978009107910523AEC7FEE3EBD7FEE3E4E7F644
:10298800828039713EDA2ED232D436D63AD842DC39
:1029980046DE97E7FF1F9387671D22CC804326CA30
:1029A80006CEAA8409C41C4C99E3228535230C441D
:1029B80054102686228536C6EF00F018F24062448D
:1029C800D24421618280011126CA4AC806CE22CC8F
:1029D8004EC652C4AA842E8901C51C4D91E3ED2927
:1029E8009C4C804499E32685C52997170000938756
:1029F800277D631CF402C0408357C400A18BB1C774
:102A08001C48A1C7FD59294A1C4483450900FD17E4
:102A1800B1E91CC463DE07062286A945268541283C
:102A2800FD576308F502294535A0971700009387DD
:102A3800277B6314F4008044C1B79717000093877D
:102A48002776E31BF4FAC04445BFA28526850522F4
:102A580055D97D55F2406244D2444249B249224A8E
:102A6800056182801CC4050963D70700184C63CB35
:102A7800E700638945011C401387170018C02380AD
:102A8800B70059B7228626851D20E31F35F7D1B731
:102A98001C401387170018C029472380E70061B737
:102AA80097E7FF1F9387870CAA85884329BF0111E1
:102AB80022CC26CA4AC806CE4EC6AA842E8932849B
:102AC80001C51C4D91E30929971700009387476FAB
:102AD8006319F406C0401C4C1CC48357C400A18B66
:102AE800C9C31C48BDCF1C4808409379F90F137916
:102AF800F90F1D8D5C486346F500A2852685752C67
:102B08002DE51C440505FD171CC41C401387170040
:102B180018C0238037015C486389A7008357C40025
:102B2800858B81CBA9476316F900A2852685712478
:102B38000DEDF24062444A85D2444249B2490561EA
:102B48008280971700009387A7696314F400804474
:102B580059B7971700009387A764E31EF4F6C0449B
:102B68009DBFA285268521203DDD7D59D9B741111C
:102B780097E7FF1F938787FF26C2844322C44AC072
:102B880006C62A892E8489C49C4C99E32685A926E1
:102B9800971700009387C762631CF402C0400317AD
:102BA800C40093170701C18393F68700B5EE93F627
:102BB80007019DEEA5472320F90013670704231694
:102BC800E4007D55B240224492440249410182808A
:102BD800971700009387C7606314F4008044C1B757
:102BE800971700009387C75BE31BF4FAC04445BFFF
:102BF800918B8DC74C5889C9930744046384F500A9
:102C08004A859123232A04028357C40023220400FF
:102C180093F7B7FD2316F4001C481CC08357C40063
:102C280093E787002316F4001C4881EF8357C400FC
:102C38001307002093F707286385E700A2854A85D4
:102C4800A5218357C40013F7170005C75C48232440
:102C58000400B307F0401CCC1C480145A5F78317B6
:102C6800C40013F7070839DF93E707042316F400B5
:102C780089BF898B014791E3584818C4F1BF83D7AE
:102C8800C500011122CC26CA06CE4AC84EC613F783
:102C98008700AA842E8471EFD841634DE000B841C3
:102CA800634AE0000145F2406244D2444249B249D5
:102CB8000561828058547DD703A904009396370193
:102CC80023A0040063DD060670488357C400918B77
:102CD80099C75C401D8E5C5899C33C401D8E5C545E
:102CE8000C50814626858297FD570357C400631D03
:102CF800F5009440F54763E8D706B70740208507F5
:102D0800B3D7D700858BA5C31C48232204001CC059
:102D18009317370163D80700FD576314F5009C40EB
:102D280091E368C84C5823A02401ADDD93074404FF
:102D38006384F50026850129232A0402A5B70C50CF
:102D48000146854626850297FD572A86E31FF5F634
:102D58009C40A5DF75476385E70059476394E704FE
:102D680023A0240181B7136707042316E4007D55C7
:102D78001DBF83A90501E38709F203A905008D8B0F
:102D880023A0350133093941014791E3D84918C4D3
:102D9800E35A20F11C540C50CA864E862685829729
:102DA8006349A0008357C40093E707042316F4007F
:102DB8007DBFAA993309A940E1BF9C49B9CF011148
:102DC80022CC06CE2A8411C51C4D81E72EC62922A5
:102DD800B245971700009387A73E639BF5004C40C8
:102DE8008397C50095C722856244F240056141BDBD
:102DF800971700009387C73E6394F5000C44CDB73E
:102E0800971700009387C739E39CF5FC4C44C9BF6A
:102E1800F24062440145056182800145828041118A
:102E280022C406C62A842316B5002317C50023200A
:102E38000500232205002324050023220506232854
:102E48000500232A0500232C05002146814513058A
:102E5800C505EFD05FD2971700009387E7B65CD01F
:102E680097170000938747B91CD4971700009387DA
:102E780087BD5CD497170000938747C000D01CD843
:102E8800B24022444101828097050000938525F3D2
:102E980089AA411126C2130680069384F5FFB384DC
:102EA800C4024AC02E8922C406C693854407A126B7
:102EB8002A8401CD2320050023222501310508C4D9
:102EC800138684068145EFD01FCB2285B240224469
:102ED80092440249410182801C4DBDE3411106C65E
:102EE80022C497070000938767FA1CD5971700003C
:102EF8009387C7349C4323240504232605042328E9
:102F080005046314F50085471CCD2A841D2848C094
:102F18002285052808C422852D2048C4484001463A
:102F28009145F53D08440546A545D53D4844094623
:102F3800C945F53585471CCCB24022444101828001
:102F480082804111971700009387472F26C2844338
:102F58004AC006C69C4C22C42A8999E32685AD3FFF
:102F6800938484048044DC40FD1763D607009C40AA
:102F7800B9CF8440C5BF0317C40039E7C1778507B7
:102F8800232204062320040023220400232404000F
:102F98005CC423280400232A0400232C04002146AF
:102FA80081451305C405EFD01FBD232A0402232C35
:102FB800040223240404232604042285B240224464
:102FC80092440249410182801304840671BF9145ED
:102FD8004A85C13588C051FDB1472320F900014415
:102FE800E9BF797122D44AD052CC56CA5AC85EC6B3
:102FF80006D626D24ECE2A8AAE8A13048504014903
:10300800054BFD5B09ECB25022544A859254025993
:10301800F249624AD24A424BB24B4561828004442B
:1030280083294400FD1963D409000040E1BF83D718
:10303800C400637BFB008397E40063877701A68560
:103048005285829A3369A90093848406E1BF197175
:10305800A6DAAE848395E500A2DC86DE328463DCE2
:10306800050083D7C40023A0060093F7070885E767
:10307800930700401DA0300836C6EF00B026B246C0
:10308800E34105FE7247BD67F98F7977BA9793B721
:1030980017009CC2F1BF930700041CC0F650665489
:1030A800D65401450961828083D7C500011122CC1D
:1030B80006CE26CA4AC8898B2E8489CF9307740402
:1030C8001CC01CC885475CC8F2406244D2444249CF
:1030D8000561828074003000AA84953FA2452A8940
:1030E8002685112A01ED8317C40013F7072069FF0D
:1030F800F19B93E727002316F400C9B79707000050
:103108009387C7D89CD48357C40008C008C893E7DE
:1031180007082316F400A2475CC8B24791CF83156D
:10312800E4002685EF00301F01C98357C400F19BD6
:1031380093E717002316F4008357C4003369F90096
:103148002316240151B7DDC583A7C5FF411122C449
:1031580006C626C21384C5FF63D307003E94AA841B
:10316800EF00502397F7FF1F9387C7B89C4391EF51
:103178002322040097F7FF1F23AE87B62244B240EC
:103188002685924441016F001021637EF4001440AB
:103198003307D4006396E7009843DC43369718C09A
:1031A8005CC0C9BFBA87D84319C3E37DE4FE944322
:1031B8003386D700631F86001040B29694C33386C7
:1031C800D700E31DC7FA10435843B29694C3D8C337
:1031D80075B76375C400B1479CC04DB71040B306BE
:1031E800C4006316D70014435843B29614C058C09D
:1031F800C0C369B78280011126CA93843500F1984B
:1032080006CE22CC4AC84EC6A104B14763F9F404DD
:10321800B14463E8B4042A89EF00D01797F7FF1F79
:10322800938747AD98433A8439E497F7FF1F93870C
:10323800A7AC9C4381EB81454A85A92F97F7FF1FCF
:1032480023ACA7AAA6854A85B127FD59631B350774
:10325800B1472320F9004A85EF00F01329A0E3DAEB
:1032680004FAB1471CC10145F2406244D2444249C4
:10327800B249056182801C40858F63C10704AD4651
:1032880063F6F6001CC03E9404C001A85C406315B8
:10329800870217F7FF1F232FF7A44A85EF00B00F07
:1032A8001305B4009307440061993307F5404DDFD7
:1032B8003A94898F1CC04DBF5CC3C5B72287404074
:1032C800A5B7130435007198E30085FCB305A44045
:1032D8004A85C925E31A35FBA5BF1C46FD171CC640
:1032E80063DA0700184E63C5E700A9476394F50041
:1032F8006FF0EFFB1C422E851387170018C223803E
:10330800B7008280011122CC26CA4AC84EC652C4D0
:1033180006CE2A89AE893284B304D6007D5A631456
:103328009400014509A8834504004E864A857537EF
:103338000504E31645FFF2406244D2444249B249CB
:10334800224A05618280357122CD26CB4AC94EC7F3
:1033580006CF52C556C35AC1DEDEE2DCE6DAAA89D8
:10336800AE843289368409C51C4D99E3EFF0DFB687
:10337800971700009387C7E4639BF40C83A4490064
:1033880083D7C400A18BF5C79C48E5C79307000203
:10339800A304F1029307000302D22305F10222C617
:1033A800930B5002971A0000938A8AE5054C294B23
:1033B8004A848347040099C36390770FB30C244170
:1033C800638D0C00E6864A86A6854E85253FFD5707
:1033D8006306F51E9256E69636D283470400638F3D
:1033E800071CFD571309140002C802CE3ECA02CCBE
:1033F800A309010482D48345090015465685B52FD3
:1034080013041900C24759E913F7070109C713073D
:103418000002A309E10413F7870009C71307B002E4
:10342800A309E104834609001307A0026380E608A4
:10343800F2474A8481462546034704009305140051
:10344800130707FD6379E60AB5CA3ECE85A8971724
:1034580000009387E7D86395F40083A489000DB72B
:10346800971700009387C7D3E39CF4F083A4C9009F
:1034780001BFA6854E85EFF08FEF09D97D55FA403B
:103488006A44DA444A49BA492A4A9A4A0A4BF65BD4
:10349800665CD65C0D618280050421BF3305554109
:1034A8003315AC00C98F3EC82289B1B7324793069D
:1034B8004700184336C6634907023ACE034704005B
:1034C8009307E002631FF704034714009307A00261
:1034D800631BF702B2470904138747009C433AC6A7
:1034E80063C107023ECA35A83307E04093E72700C7
:1034F8003ACE3EC8E1B7B387670385462E84BA97AC
:1035080025BFFD57C5B7050402CA81468147254630
:103518000347040093051400130707FD6376E606C6
:10352800F1F2834504000D46171500001305C5CDBB
:10353800A92511CD97170000938707CD1D8D9307F7
:103548000004B397A700424505045D8D2AC883454A
:103558000400194617150000130545CB130914007C
:103568002304B102192D3DC197D7FFFF938707A9FF
:1035780095E74247B2471377071009CF91073EC630
:103588009257D2973ED22DB5B387670385462E84CE
:10359800BA97BDBF9D07E19BA107D5B778009706ED
:1035A8000000938666D626860C084E859700000094
:1035B800E7000000FD572A8AE314F5FC83D7C4000E
:1035C80093F70704E39C07EA125555BD7800970660
:1035D8000000938666D326860C084E85012AD9BF3B
:1035E800797156CA9C49BA8A984522D426D24ECEB9
:1035F80052CC06D64AD05AC85EC6AA892E84B2844E
:10360800368A63D3E700BA879CC00347340419C3DA
:1036180085079CC01C4093F7070281C79C40890717
:103628009CC00329040013796900631A0900130B6D
:103638009401FD5B5C449840998F634CF9041C40ED
:103648008346340493F70702B336D000A5EB13067C
:103658003404D2854E85829AFD576303F5041C40D5
:1036680011469840998B544481446397C700B384AA
:10367800E64063D3040081441C4418486354F700AF
:10368800998FBE94014969047D5B639824050145BF
:1036980009A885465A86D2854E85829A631E750189
:1036A8007D55B250225492540259F249624AD24A84
:1036B800424BB24B456182800509ADBF3307D40048
:1036C80013060003A301C704034754049387160095
:1036D800A2978906A381E7049DBF85462286D285E5
:1036E8004E85829AE30E65FB050945B7797122D4A8
:1036F80026D24AD04ECE06D652CC56CA5AC8B68919
:1037080083C68501930790063289AA842E8413867E
:103718003504638DF60263E2D70693078005638755
:10372800F61863EDD7006380062293073004638E92
:10373800F60A930A24042301D404C9A09307300687
:103748006385F60A93074006E395F6FE1C40084396
:1037580093F6070893054500C5C61C410CC363D8FA
:1037680007001307D002B307F040A301E40497163B
:103778000000938626AA29476DA89307000763834C
:10378800F61663E5D7029307E006638AF6189307EF
:10379800F006E390F6FA0C401C4313F8050813856D
:1037A80047006307080608C39C438DA89307500782
:1037B800E383F6FE93078007638AF61293073007C0
:1037C800E399F6F61C43D04181459386470014C31C
:1037D80083AA07005685552601C53305554148C0BB
:1037E8005C401CC8A301040471A81C43930A240468
:1037F800938647009C4314C32301F4048547D5B737
:1038080093F607041C410CC3B9DAC207C18781BF0C
:1038180093F5050408C3C9D983D707001307F00631
:103828006387E60E971600009386C69E2947A30174
:1038380004044C400CC463C5050008406D9908C0D9
:1038480099E3B28A91CDB28AB3F5E702FD1AB6952B
:1038580083C505002380BA00B3D5E70263FFE70AF2
:10386800A147631EF7001C40858B91CB58401C482C
:1038780063C7E70093070003A38FFAFEFD1A330618
:10388800564110C84E87CA867000A2852685893B96
:103898007D5A631E450B7D55B250225492540259ED
:1038A800F249624AD24A424B45618280A382D504DA
:1038B80097160000938606960C40084313F80508EF
:1038C8001C411105630D080208C313F7150001C751
:1038D80093E505020CC04147B9FB0C4093F5F5FD93
:1038E8000CC0B1B79C4193E707029CC193078007BE
:1038F800A302F404971600009386069375BF13F885
:10390800050408C3E30308FCC207C1837DBF9716FB
:10391800000093862690214719BFAE8735B794419A
:103928001C43CC4913F806081385470063060800B2
:1039380008C39C438CC301A808C393F606049C43A0
:10394800F5DA2390B70023280400B28A25BF14486B
:103958005686CA8526858299E30F45F31C40898BD4
:103968008DE7B2474844E359F5F23E8535B78546B9
:103978005686CA8526858299E30F65F1050A5C4457
:103988003247998FE345FAFEE9BF014A930A940149
:103998007D5BF5B7411122C42A842E8597F7FF1F56
:1039A80023A207FA06C69D2CFD576319F50097F761
:1039B800FF1F938727F99C4391C31CC0B240224440
:1039C80041018280411122C42E848395E50006C6F8
:1039D800E122634905007C48AA977CC8B24022448A
:1039E800410182808357C4007D777D17F98F2316A4
:1039F800F400EDB783D7C500011122CC26CA4AC806
:103A08004EC606CE93F70710AA842E843289B6894B
:103A180091C78395E5008946014635228357C4003E
:103A28007D777D17F98F2316F4008315E40062442F
:103A3800F240CE864A86B24942492685D24405617B
:103A48003DA8411122C42E848395E50006C6E528C9
:103A5800FD570357C400631BF500FD77FD17F98F69
:103A68002316F400B2402244410182808567D98F31
:103A78002316F40068C8FDB78395E50025A8411111
:103A880022C42A842E85B285368697F7FF1F23AB7A
:103A980007EA06C6EFD0EFF0FD576319F50097F770
:103AA800FF1F938727EA9C4391C31CC0B24022445E
:103AB80041018280411122C42A842E8597F7FF1F75
:103AC80023A207E806C61922FD576319F50097F7E0
:103AD800FF1F938727E79C4391C31CC0B240224431
:103AE80041018280411122C42A842E85B28597F72C
:103AF800FF1F23A907E406C6D520FD576319F50063
:103B080097F7FF1F938707E49C4391C31CC0B240FB
:103B1800224441018280411122C42A842E8597F7CC
:103B2800FF1F23A107E206C6D120FD576319F50040
:103B380097F7FF1F938707E19C4391C31CC0B240CE
:103B4800224441018280411122C42A842E85B285F3
:103B5800368697F7FF1F23A707DE06C64520FD57C1
:103B68006319F50097F7FF1F9387C7DD9C4391C33F
:103B78001CC0B24022444101828093F5F50F2A9679
:103B88006314C5000145828083470500E38DB7FEB5
:103B98000505FDB782808280411122C42A842E85C2
:103BA800B285368697F7FF1F23AE07D806C6B92811
:103BB800FD576319F50097F7FF1F9387A7D89C4314
:103BC80091C31CC0B2402244410182809307800502
:103BD80017F7FF1F2328F7D67D55828093078005A6
:103BE80017F7FF1F2320F7D67D558280930780059E
:103BF80017F7FF1F2328F7D4014582809307800514
:103C080017F7FF1F2320F7D47D558280930780057F
:103C180017F7FF1F2328F7D27D55828097E7FF1FEC
:103C28009387C70D9C4381CB3E9517E7FF1F23273A
:103C3800A70C3E85828097F7FF1F9387E7D03E95B4
:103C480017E7FF1F232CA70A3E8582800080020207
:103C58001F000000202020202020202020202020BD
:103C6800202020202020202020202020202020204C
:103C7800EB3C9055463220554632200002010100A7
:103C88000240000000F802010100010000000000ED
:103C980009010100800029420042004C472D506C68
:103CA800756D000000004641543136202020000088
:103CB8003C21646F63747970652068746D6C3E0A8A
:103CC8003C68746D6C3E3C626F64793E3C73637211
:103CD8006970743E0A6C6F636174696F6E2E7265E9
:103CE800706C616365282268747470733A2F2F773B
:103CF80077772E6C675F73747564696F2E636F6D69
:103D08002F22293B0A3C2F7363726970743E3C2F43
:103D1800626F64793E3C2F68746D6C3E0A00000047
:103D2800506C756D2055463220426F6F746C6F6110
:103D380064657220302E302E310D0A4D6F64656C2B
:103D48003A204C472053747564696F20506C756D28
:103D580020426F6F746C6F616465720D0A426F6107
:103D680072642D49443A20506C756D20426F6F740F
:103D78006C6F6164657220666F72204C47205374C3
:103D88007564696F0D0A446174653A204A756E203E
:103D9800313820323032330D0A000000120100029F
:103DA800000000409A235D0000020102030109029D
:103DB80020000101008032090400000208065002B8
:103DC80007050202400000070581024000000403C5
:103DD800090414034300680065007200720079004A
:103DE8005500530042002603430068006500720036
:103DF8007200790055005300420020004D00530026
:103E080043002000440045004D004F0016033200D7
:103E18003000320032003100320033003400350007
:103E2800360000001B5B33316D5B452F5553425DF7
:103E38002000000045702061646472202564206FB2
:103E4800766572666C6F770D0A0000001B5B306D3B
:103E580000000000F0D8FFFF06D9FFFF98D8FFFF49
:103E680006D9FFFF98D8FFFF00D9FFFF0CD9FFFF45
:103E780098D8FFFFF6D9FFFF02DAFFFF5265717588
:103E88006573742062756666657220746F6F20733F
:103E98006D616C6C0D00000053657475703A20629A
:103EA8006D52657175657374547970652030782525
:103EB8003032782C206252657175657374203078C1
:103EC800253032782C207756616C7565203078253E
:103ED8003034782C2077496E646578203078253026
:103EE80034782C20774C656E6774682030782530DC
:103EF80034780D0A000000001B5B33326D5B492FDC
:103F08005553425D200000004F70656E2065703A81
:103F180030782530327820747970653A2575206DAF
:103F280070733A25750D0A0072656164204D53203F
:103F38004F5320322E302064657363726970746F3A
:103F48007220737472696E670D0000007265616497
:103F580020424F532064657363726970746F7220D6
:103F6800737472696E670D007265616420686964B4
:103F7800207265706F7274206465736372697074FF
:103F88006F720D00436C6F73652065703A30782549
:103F980030327820747970653A25750D0A00000072
:103FA80065703A2530327820636C656172206861EB
:103FB8006C740D0A0000000065703A2530327820D4
:103FC8007365742068616C740D0A00001B5B3333E1
:103FD8006D5B572F5553425D2000000049676E6F97
:103FE80072652044514420696E2066730D000000FC
:103FF8007374616E6461726420726571756573743F
:10400800206572726F720D00636C61737320726544
:104018007175657374206572726F720D000000000F
:1040280067657420436F6D7061742049440D00000A
:1040380067657420436F6D706174206964207072C5
:104048006F706572746965730D000000756E6B6E34
:104058006F776E2076656E646F7220636F64650D8E
:1040680000000000474554204D53204F5320322E66
:10407800302044657363726970746F720D000000BC
:1040880076656E646F7220726571756573742065EC
:1040980072726F720D0000006465736372697074E8
:1040A8006F72203C747970653A25782C696E646566
:1040B800783A25783E206E6F7420666F756E64219D
:1040C8000D0A000073697A6520213D2073697A65BD
:1040D8006F6628636277290D000000004C4241207A
:1040E8006F7574206F662072616E67650D00000041
:1040F800736373695F626C6B5F6C656E20646F6578
:1041080073206E6F74206D617463682077697468BA
:104118002064446174614C656E6774680D0000002A
:10412800756E737570706F7274656420636D643A30
:104138003078253032780D0A00000000436F6D6D2D
:10414800616E643A307825303278206465636F6434
:1041580065206572720D0A00556E68616E646C6543
:1041680064204D534320436C617373206252657120
:1041780075657374203078253032780D0A00000098
:104188006D736320626C6F636B206275666665721F
:10419800206F766572666C6F770D00000000000076
:1041A8000000000000000000000000000000000007
:1041B80000000000000000000000000000000000F7
:1041C80000000000000000000000000000000000E7
:1041D80000000000000000000000000000000000D7
:1041E80000000000000000000000000000000000C7
:1041F800000000000000000000000000232D302B0C
:1042080020000000686C4C00656667454647000062
:1042180030313233343536373839414243444546F4
:1042280000000000303132333435363738396162B6
:0C42380063646566000000000C0B0020B1
:10424400504C554D5F55463254585400283D00009B
:104254007900000000000000494E44455820202009
:1042640048544D00B83C00006D0000000000000000
:1042740043555252454E542055463200000000002A
:10428400000000000000000000000000C441000025
:10429400E4410000A4410000000000000000000010
:1042A400000000000000000000000000000000000A
:1042B40000000000000000000000000000000000FA
:1042C40000000000000000000000000000000000EA
:1042D40000000000000000000000000000000000DA
:1042E4000000000000000000000000000C0B002093
:0442F40000000000C6
:1042F80000000000000000000000000000000000B6
:1043080000000000000000000000000000000000A5
:104318000000000000000000000000000000000095
:104328000000000000000000000000000000000085
:00000001FF
